{
  "_format": "hh-sol-artifact-1",
  "contractName": "FileStorage",
  "sourceName": "contracts/FileStorage.sol",
  "abi": [
    {
      "anonymous": false,
      "inputs": [
        {
          "indexed": false,
          "internalType": "string",
          "name": "fileName",
          "type": "string"
        },
        {
          "indexed": false,
          "internalType": "string",
          "name": "cid",
          "type": "string"
        },
        {
          "indexed": false,
          "internalType": "address",
          "name": "uploader",
          "type": "address"
        },
        {
          "indexed": false,
          "internalType": "uint256",
          "name": "timestamp",
          "type": "uint256"
        }
      ],
      "name": "FileUploaded",
      "type": "event"
    },
    {
      "inputs": [
        {
          "internalType": "uint256",
          "name": "",
          "type": "uint256"
        }
      ],
      "name": "files",
      "outputs": [
        {
          "internalType": "string",
          "name": "fileName",
          "type": "string"
        },
        {
          "internalType": "string",
          "name": "cid",
          "type": "string"
        },
        {
          "internalType": "address",
          "name": "uploader",
          "type": "address"
        },
        {
          "internalType": "uint256",
          "name": "timestamp",
          "type": "uint256"
        }
      ],
      "stateMutability": "view",
      "type": "function"
    },
    {
      "inputs": [],
      "name": "getFiles",
      "outputs": [
        {
          "components": [
            {
              "internalType": "string",
              "name": "fileName",
              "type": "string"
            },
            {
              "internalType": "string",
              "name": "cid",
              "type": "string"
            },
            {
              "internalType": "address",
              "name": "uploader",
              "type": "address"
            },
            {
              "internalType": "uint256",
              "name": "timestamp",
              "type": "uint256"
            }
          ],
          "internalType": "struct FileStorage.File[]",
          "name": "",
          "type": "tuple[]"
        }
      ],
      "stateMutability": "view",
      "type": "function"
    },
    {
      "inputs": [
        {
          "internalType": "string",
          "name": "_fileName",
          "type": "string"
        },
        {
          "internalType": "string",
          "name": "_cid",
          "type": "string"
        }
      ],
      "name": "uploadFile",
      "outputs": [],
      "stateMutability": "nonpayable",
      "type": "function"
    }
  ],
  "bytecode": "0x608060405234801561001057600080fd5b50610d49806100206000396000f3fe608060405234801561001057600080fd5b50600436106100415760003560e01c80632da96d7314610046578063996d50bf14610064578063f4c714b414610080575b600080fd5b61004e6100b3565b60405161005b919061073e565b60405180910390f35b61007e600480360381019061007991906108a9565b610296565b005b61009a6004803603810190610095919061094d565b6103b8565b6040516100aa94939291906109e2565b60405180910390f35b60606000805480602002602001604051908101604052809291908181526020016000905b8282101561028d578382906000526020600020906004020160405180608001604052908160008201805461010a90610a64565b80601f016020809104026020016040519081016040528092919081815260200182805461013690610a64565b80156101835780601f1061015857610100808354040283529160200191610183565b820191906000526020600020905b81548152906001019060200180831161016657829003601f168201915b5050505050815260200160018201805461019c90610a64565b80601f01602080910402602001604051908101604052809291908181526020018280546101c890610a64565b80156102155780601f106101ea57610100808354040283529160200191610215565b820191906000526020600020905b8154815290600101906020018083116101f857829003601f168201915b505050505081526020016002820160009054906101000a900473ffffffffffffffffffffffffffffffffffffffff1673ffffffffffffffffffffffffffffffffffffffff1673ffffffffffffffffffffffffffffffffffffffff168152602001600382015481525050815260200190600101906100d7565b50505050905090565b600060405180608001604052808481526020018381526020013373ffffffffffffffffffffffffffffffffffffffff168152602001428152509080600181540180825580915050600190039060005260206000209060040201600090919091909150600082015181600001908161030d9190610c41565b5060208201518160010190816103239190610c41565b5060408201518160020160006101000a81548173ffffffffffffffffffffffffffffffffffffffff021916908373ffffffffffffffffffffffffffffffffffffffff1602179055506060820151816003015550507f62347da9dbafbab1000b0204c6d22965f55a84e57a9e6c796b07d82a0af03651828233426040516103ac94939291906109e2565b60405180910390a15050565b600081815481106103c857600080fd5b90600052602060002090600402016000915090508060000180546103eb90610a64565b80601f016020809104026020016040519081016040528092919081815260200182805461041790610a64565b80156104645780601f1061043957610100808354040283529160200191610464565b820191906000526020600020905b81548152906001019060200180831161044757829003601f168201915b50505050509080600101805461047990610a64565b80601f01602080910402602001604051908101604052809291908181526020018280546104a590610a64565b80156104f25780601f106104c7576101008083540402835291602001916104f2565b820191906000526020600020905b8154815290600101906020018083116104d557829003601f168201915b5050505050908060020160009054906101000a900473ffffffffffffffffffffffffffffffffffffffff16908060030154905084565b600081519050919050565b600082825260208201905092915050565b6000819050602082019050919050565b600081519050919050565b600082825260208201905092915050565b60005b8381101561058e578082015181840152602081019050610573565b60008484015250505050565b6000601f19601f8301169050919050565b60006105b682610554565b6105c0818561055f565b93506105d0818560208601610570565b6105d98161059a565b840191505092915050565b600073ffffffffffffffffffffffffffffffffffffffff82169050919050565b600061060f826105e4565b9050919050565b61061f81610604565b82525050565b6000819050919050565b61063881610625565b82525050565b6000608083016000830151848203600086015261065b82826105ab565b9150506020830151848203602086015261067582826105ab565b915050604083015161068a6040860182610616565b50606083015161069d606086018261062f565b508091505092915050565b60006106b4838361063e565b905092915050565b6000602082019050919050565b60006106d482610528565b6106de8185610533565b9350836020820285016106f085610544565b8060005b8581101561072c578484038952815161070d85826106a8565b9450610718836106bc565b925060208a019950506001810190506106f4565b50829750879550505050505092915050565b6000602082019050818103600083015261075881846106c9565b905092915050565b6000604051905090565b600080fd5b600080fd5b600080fd5b600080fd5b7f4e487b7100000000000000000000000000000000000000000000000000000000600052604160045260246000fd5b6107b68261059a565b810181811067ffffffffffffffff821117156107d5576107d461077e565b5b80604052505050565b60006107e8610760565b90506107f482826107ad565b919050565b600067ffffffffffffffff8211156108145761081361077e565b5b61081d8261059a565b9050602081019050919050565b82818337600083830152505050565b600061084c610847846107f9565b6107de565b90508281526020810184848401111561086857610867610779565b5b61087384828561082a565b509392505050565b600082601f8301126108905761088f610774565b5b81356108a0848260208601610839565b91505092915050565b600080604083850312156108c0576108bf61076a565b5b600083013567ffffffffffffffff8111156108de576108dd61076f565b5b6108ea8582860161087b565b925050602083013567ffffffffffffffff81111561090b5761090a61076f565b5b6109178582860161087b565b9150509250929050565b61092a81610625565b811461093557600080fd5b50565b60008135905061094781610921565b92915050565b6000602082840312156109635761096261076a565b5b600061097184828501610938565b91505092915050565b600082825260208201905092915050565b600061099682610554565b6109a0818561097a565b93506109b0818560208601610570565b6109b98161059a565b840191505092915050565b6109cd81610604565b82525050565b6109dc81610625565b82525050565b600060808201905081810360008301526109fc818761098b565b90508181036020830152610a10818661098b565b9050610a1f60408301856109c4565b610a2c60608301846109d3565b95945050505050565b7f4e487b7100000000000000000000000000000000000000000000000000000000600052602260045260246000fd5b60006002820490506001821680610a7c57607f821691505b602082108103610a8f57610a8e610a35565b5b50919050565b60008190508160005260206000209050919050565b60006020601f8301049050919050565b600082821b905092915050565b600060088302610af77fffffffffffffffffffffffffffffffffffffffffffffffffffffffffffffffff82610aba565b610b018683610aba565b95508019841693508086168417925050509392505050565b6000819050919050565b6000610b3e610b39610b3484610625565b610b19565b610625565b9050919050565b6000819050919050565b610b5883610b23565b610b6c610b6482610b45565b848454610ac7565b825550505050565b600090565b610b81610b74565b610b8c818484610b4f565b505050565b5b81811015610bb057610ba5600082610b79565b600181019050610b92565b5050565b601f821115610bf557610bc681610a95565b610bcf84610aaa565b81016020851015610bde578190505b610bf2610bea85610aaa565b830182610b91565b50505b505050565b600082821c905092915050565b6000610c1860001984600802610bfa565b1980831691505092915050565b6000610c318383610c07565b9150826002028217905092915050565b610c4a82610554565b67ffffffffffffffff811115610c6357610c6261077e565b5b610c6d8254610a64565b610c78828285610bb4565b600060209050601f831160018114610cab5760008415610c99578287015190505b610ca38582610c25565b865550610d0b565b601f198416610cb986610a95565b60005b82811015610ce157848901518255600182019150602085019450602081019050610cbc565b86831015610cfe5784890151610cfa601f891682610c07565b8355505b6001600288020188555050505b50505050505056fea26469706673582212204d028652994309e094479c79c293c86c64c216da64b5fa58826fa90b75b0059264736f6c63430008140033",
  "linkReferences": {},
  "deployedLinkReferences": {}
}